:020000040800F2
:107900000040002089EA000879E900087BE90008C6
:107910000000000000000000000000000000000067
:107920000000000000000000000000007DE90008E9
:1079300000000000000000007FE9000881E9000865
:10794000D9EA0008D9EA0008D9EA0008D9EA00080B
:10795000D9EA0008D9EA000889E9000893E9000893
:10796000D9EA0008D9EA0008D9EA0008D9EA0008EB
:10797000D9EA0008A1E90008B1E90008D9EA00083D
:10798000B9E90008D9EA0008D9EA0008D9EA0008EC
:10799000D9EA0008D9EA0008D9EA0008D9EA0008BB
:1079A000D9EA0008D9EA0008D9EA0008D9EA0008AB
:1079B000D9EA0008D9EA0008D9EA0008C9E90008AC
:1079C00010B5064C2378002B07D1054B002B02D0B5
:1079D000044800E000BF0123237010BD28030020ED
:1079E00000000000E8BB0108044B10B5002B03D0D9
:1079F0000349044800E000BF10BDC046000000007D
:107A00002C030020E8BB01080023C25C0133002ADC
:107A1000FBD1581E7047000002B471464908490066
:107A2000095649008E4402BC7047C04602B47146F4
:107A300049084900095C49008E4402BC7047C046B1
:107A400003B47146490840004900095E49008E446C
:107A500003BC704703B47146490840004900095A05
:107A600049008E4403BC7047002243088B4274D304
:107A700003098B425FD3030A8B4244D3030B8B422F
:107A800028D3030C8B420DD3FF22090212BA030C38
:107A90008B4202D31212090265D0030B8B4219D319
:107AA00000E0090AC30B8B4201D3CB03C01A524139
:107AB000830B8B4201D38B03C01A5241430B8B4281
:107AC00001D34B03C01A5241030B8B4201D30B036A
:107AD000C01A5241C30A8B4201D3CB02C01A524191
:107AE000830A8B4201D38B02C01A5241430A8B4254
:107AF00001D34B02C01A5241030A8B4201D30B023D
:107B0000C01A5241CDD2C3098B4201D3CB01C01A56
:107B1000524183098B4201D38B01C01A5241430960
:107B20008B4201D34B01C01A524103098B4201D34E
:107B30000B01C01A5241C3088B4201D3CB00C01ABB
:107B4000524183088B4201D38B00C01A5241430833
:107B50008B4201D34B00C01A5241411A00D2014658
:107B6000524110467047FFE701B5002000F0F0F8E1
:107B700002BDC0460029F7D076E7704703460B43A5
:107B80007FD4002243088B4274D303098B425FD316
:107B9000030A8B4244D3030B8B4228D3030C8B4242
:107BA0000DD3FF22090212BA030C8B4202D3121228
:107BB000090265D0030B8B4219D300E0090AC30BFD
:107BC0008B4201D3CB03C01A5241830B8B4201D3AA
:107BD0008B03C01A5241430B8B4201D34B03C01A93
:107BE0005241030B8B4201D30B03C01A5241C30A0B
:107BF0008B4201D3CB02C01A5241830A8B4201D37C
:107C00008B02C01A5241430A8B4201D34B02C01A65
:107C10005241030A8B4201D30B02C01A5241CDD20A
:107C2000C3098B4201D3CB01C01A524183098B4255
:107C300001D38B01C01A524143098B4201D34B013E
:107C4000C01A524103098B4201D30B01C01A5241A1
:107C5000C3088B4201D3CB00C01A524183088B4228
:107C600001D38B00C01A524143088B4201D34B0011
:107C7000C01A5241411A00D2014652411046704783
:107C80005DE0CA0F00D04942031000D34042534088
:107C900000229C4603098B422DD3030A8B4212D348
:107CA000FC22890112BA030A8B420CD3890192117A
:107CB0008B4208D3890192118B4204D389013AD0B7
:107CC000921100E08909C3098B4201D3CB01C01A8C
:107CD000524183098B4201D38B01C01A524143099F
:107CE0008B4201D34B01C01A524103098B4201D38D
:107CF0000B01C01A5241C3088B4201D3CB00C01AFA
:107D0000524183088B4201D38B00C01A5241D9D211
:107D100043088B4201D34B00C01A5241411A00D292
:107D20000146634652415B10104601D34042002B8E
:107D300000D54942704763465B1000D3404201B50D
:107D4000002000F005F802BD0029F8D016E77047C2
:107D50007047C046D0400B00D1409C46203AD340EB
:107D600018435242634693401843704784461000BC
:107D700062468C461900634600E0C0461FB501F01C
:107D800033FD002801D40021C8421FBD10B501F009
:107D900083FC4042013010BD10B501F025FD0028E4
:107DA00001DB002010BD012010BDC04610B501F060
:107DB0001BFD002801DD002010BD012010BDC046C4
:107DC00010B501F0ABFC002801DC002010BD012043
:107DD00010BDC04610B501F0A1FC002801DA00205A
:107DE00010BD012010BDC0469E2110B5C905041C60
:107DF00002F006FD002803D1201C00F0ADFD10BDEF
:107E00009E21201CC90500F0E3FB00F0A5FD8023A6
:107E10001B069C466044F2E7F0B5C64643025B0A87
:107E20004E0245004F00DA00C40F9C46700A90468F
:107E300000B52D0E3F0EC90FB6098C424BD0EA1B80
:107E4000002A36DD002F61D0FF2D00D1ADE0802368
:107E5000DB041E431B2A00DCD3E001204346181A32
:107E6000430100D48CE080018709380002F0D2FC85
:107E700005388740854200DCB6E02D1AB34838400B
:107E8000430704D00F230340042B00D004304301E8
:107E900000D478E06A1CFE2D65D08001430A9C4620
:107EA000D2B26346D0051843E407204380BCB846ED
:107EB000F0BD002A35D07A1B002D00D0AFE043463C
:107EC000002B00D1A7E0531E012A00D12FE1FF2A89
:107ED00069D01A00AAE0E91B002970DD002F37D015
:107EE000FF2D62D08023DB041E431B2900DCB0E0A1
:107EF00001204044430143D50135FF2D33D00123F8
:107F0000934A0340400810401843B9E7002E00D1BF
:107F100083E0511E012A00D1D8E0FF2A45D00A0093
:107F200098E7FE276A1C174200D086E0002D00D09B
:107F3000B7E04346002B00D1F3E00022002EB0D082
:107F4000981B430100D4FAE043460C00F01A97E76F
:107F5000002E00D1C8E04A1E012900D1AEE0FF2961
:107F600023D01100C1E70023FF229C4699E7FE21A0
:107F70006A1C114277D0FF2AF5D0150046447008DC
:107F8000430700D07EE7C308FF2D0ED05B025B0ADB
:107F90009C46EAB285E7002E07D08022D203134226
:107FA00003D0104201D10C000300002BDBD0802055
:107FB000C00318434002430A9C46FF2271E7002990
:107FC000D5D07A1B002D60D14346002B24D0531E00
:107FD000012A73D0FF2AE7D01A001B2A00DC85E0B3
:107FE00001203D00801985E720233A00451B380019
:107FF0000135EA405D1BA840431E9841002510430F
:108000003EE7202330009B1A31009840D140431EA8
:108010009841084322E70C0003001500B4E7FF2F46
:10802000C1D080234046DB04184380461B2A51DD23
:1080300001200C003D00301A12E743469F1B7B01D4
:108040002BD4002F00D010E70023002400229C46F0
:1080500027E7202332003000CA40591A8840431EC7
:108060009841104345E7002D4AD14346002B63D089
:108070000022002E00D114E730004044430100D418
:108080007EE7324B013518407AE7FF2F8CD08023F2
:108090004146DB04194388469FE743460C00F71A24
:1080A000E3E64246002A00D075E7002E00D07AE7CA
:1080B0008023DB0300249C46FF22F2E6300040448C
:1080C0000125430100D45BE7022518E7434601255B
:1080D000981BC5E6202344464046D4409A1A904057
:1080E000431E98412043A4E70D004DE7202341465D
:1080F0004046D1409A1A9040431E9841084370E789
:108100004246002A00D14FE7002E00D14DE78022E1
:10811000D203134200D148E7104200D045E70300E4
:1081200043E7002E90D00C0084460022B9E6434677
:108130000C00F01A013593E684460022B1E60028CF
:1081400000D01DE7002300249C46AAE6FFFFFFFBAA
:10815000FFFFFF7DF0B54F464646D6464502C0B507
:1081600047000C1C6D0A3F0EC60F002F00D170E0B7
:10817000FF2F00D175E0EB008025ED041D430023A7
:1081800099469A467F3F6002430A984663001B0E59
:10819000E40F002B4ED0FF2B46D04246D000802269
:1081A000D2040243904600227F3B3100FF1A4B4627
:1081B0006140C9B213430F2B00D9B5E06E489B0054
:1081C000C3589F460023984626004546924653468C
:1081D000022B00D189E0032B00D19EE0012B18D0A7
:1081E0003B007F33002B69DD6A0704D00F222A4051
:1081F000042A00D004352A0103D5604B1D403B0002
:108200008033FE2B00DD70E0AD016D0AD8B202E0D4
:108210000E0000200025C0052843F6073043E0BCCF
:10822000BA46B146A846F0BD4346002B3FD10222D4
:10823000FF3F03E04346002B2DD1012231004B4686
:108240006140C9B213430F2B34D84D489B00C3582B
:108250009F46002D13D104239946033B00279A46DD
:1082600091E7002D05D108239946063BFF279A4642
:1082700089E70C239946093BFF279A4683E72800A4
:1082800002F0C8FA7627431F9D4000237F4299469B
:108290009A463F1A77E7404602F0BCFA4246431F2F
:1082A0009A4076235B4290461B1A00227DE7FF230B
:1082B00003227AE70E00FF200025ACE70120C01A58
:1082C0001B28A6DC9E372A00BD40C2406B1E9D4184
:1082D00015436B0704D00F232B40042B00D004352B
:1082E0006B0144D50120002595E7FF20002592E78A
:1082F00080250026FF20ED038DE70023984680208F
:10830000C003054209D04346034206D14546054312
:108310006D022600FF206D0A7DE78020C003054323
:108320006D02FF206D0A76E742466B0150018342E1
:1083300019D21B220025013F01261C006D005B00A5
:10834000002C01DB984201D81B1A3543013A002A60
:10835000F3D15A1E93411D433B007F330E00002B87
:1083600000DD41E7AAE71A2201251B1AE4E7AD0167
:1083700000206D0A4FE7C04610BC0108FFFFFFF761
:1083800050BC0108F0B54F464646D646440245006B
:10839000C0B5640A0F1C2D0EC60F002D00D18DE054
:1083A000FF2D00D192E00023802099469A46E400F8
:1083B000C00404437F3D7802430A98467B001B0EAD
:1083C000FF0F002B00D170E0FF2B00D186E042466A
:1083D000D00080227F3BED180023D2040243904658
:1083E0009C4631004B467940681C0F2B1CD8764ABE
:1083F0009B00D3589F4639004446E2465346022B21
:108400000FD0032B00D1D7E0012B37D1002000245F
:10841000C0052043C9070843E0BCBA46B146A84698
:10842000F0BDFF200024F3E7260C2404220C444670
:108430002404240C434627001B0C574374435A431F
:108440005E4312193B0C9B189C4203D980225202B6
:10845000944666443F041A043F0CD2199401671EE7
:10846000BC411B0C920E9B1914439B011C431B0126
:1084700000D49BE0012362081C40144302007F32B9
:10848000002A64DD630704D00F232340042B00D0AF
:108490000434230103D502004C4B80321C40FE2AD9
:1084A000BFDCA401640AD0B2B2E74346002B3DD141
:1084B0004A4601331A4391469C4692E7002C29D143
:1084C00004239946033B00259A4674E7002C1BD1F0
:1084D00008239946063BFF259A466CE74346FF353D
:1084E000002B0BD102234A461A4391469C4678E75B
:1084F00053463100022B00D083E792E703234A461C
:108500001A4391469C466CE70C239946093BFF258C
:108510009A4650E7200002F07DF97625431F9C40E3
:1085200000236D4299469A462D1A44E7404602F0D0
:1085300071F94246431F9A4000232D1A90469C46EB
:10854000763D4EE780240021FF20E40360E701230D
:108550009B1A1B2B00DD59E722009E30DA40844035
:108560001300621E94411C43630704D00F23234071
:10857000042B00D0043463011AD50120002447E7FE
:108580008020C003044209D04346034206D144463A
:10859000044364023900FF20640A39E78020C003E5
:1085A000044364023100FF20640A31E7280065E7D4
:1085B000A4010020640A2BE78020C0030443640266
:1085C000FF20640A24E7C04690BC0108FFFFFFF7C4
:1085D000F8B5CE46474643025B0A4E02DA0094469F
:1085E000720A914645004A0080B52D0E1F00C40F47
:1085F000120EC90FB609FF2A5BD0012041408C4200
:1086000039D0A81A00285ADD002A6AD0FF2D00D1DF
:10861000D9E08022D20416431B2800DCE9E00120C7
:108620006346181A430100D4B4E08001870938007A
:1086300002F0F0F805388740854200DCCCE02D1AC6
:10864000B5483840430704D00F230340042B00D023
:108650000430430100D4A0E06A1CFE2D00D18DE05F
:108660008001470AD2B2D0053843E4072043C0BC9A
:10867000B946B046F8BDA81A8046002845DD002A54
:1086800070D0FF2D00D19EE08023DB041E434346C3
:108690001B2B00DCD2E00120604443017AD5013578
:1086A000FF2D6BD001239D4A034040081040184322
:1086B000C8E7002E20D08C4223D02800FF380028A5
:1086C00039D0571B002D00D09DE06346002B00D110
:1086D000DBE07B1E012F00D10DE1FF2F71D01F00C9
:1086E00098E0002E00D1A7E0421E012800D1E6E06C
:1086F000FF2868D010008FE701204140A14200D040
:108700007FE7FF2040428046A8444046002838D0FA
:10871000511B002D00D1AEE0FF2A00D1DFE0802305
:108720006046DB04184384461B2900DCD9E00120A5
:1087300015008019B1E7FE206A1C104271D1002D8E
:1087400000D0A6E06346002B00D1D9E00022002E25
:1087500000D188E7981B430100D4E1E063460C0098
:10876000F01A6FE7002E00D1B7E00200013A0128AD
:1087700000D19CE0FF2826D0904688E7FF22002702
:1087800071E7FE206A1C104264D0FF2AF6D0150063
:1087900066447008430700D056E7C308FF2D12D087
:1087A0005B025F0AEAB25EE76246002A00D196E009
:1087B000002E08D08022D203134204D04846104233
:1087C00001D10C004B46002BD8D08027FF031F435C
:1087D0007F02FF227F0A46E720233A00451B38002C
:1087E0000135EA405D1BA840431E98410025104317
:1087F00028E720231B1A32009E40C2403000431E4F
:10880000984110430CE7FF2ADBD080236046DB044D
:10881000184384461B2F56DD01200C001500301A2A
:1088200000E763469F1B7B013DD4002F00D0FEE68E
:1088300000240022002716E70500AFE73200434678
:108840004146DA4020235B1A9E403000431E984187
:10885000104321E7002DA7D16346002B59D00022F9
:10886000002E00D1FFE630006044430192D52A4B30
:10887000013518408EE76346002B47D04B1E012977
:1088800015D0FF292BD019004EE70C004B463D00B8
:1088900084E76246002A8BD1002E92D180270024E3
:1088A000FF22FF03DFE663460C00F71ABFE6300045
:1088B00060440125430100D46CE70225F2E66346DB
:1088C0000125981BAEE6202364466046FC40DF1B72
:1088D000B840431E984120439FE705005EE74B46A2
:1088E00071E7202365466046CD40591A8840431EF3
:1088F000984128431CE763460C000125F01A91E6D5
:10890000002E95D00C004F460022ACE64B460D00E1
:1089100044E74F460022A6E6FFFFFFFBFFFFFF7D77
:10892000002800D036E7002400279CE643024A02D4
:10893000400049005B0A520A090E000EFF2806D0CB
:108940000020FF2902D1531E9A4110007047FE38C3
:10895000002BFBD1F4E7C04641024200C30F490A95
:108960000020120E7E2A03DD9D2A02DD094A981896
:108970007047802000040143952A07DC9620821A64
:10898000D1404842002BF3D10800F1E7963A9140DC
:10899000F7E7C046FFFFFF7FF8B5002813D0C317E5
:1089A000C6185E40C40F300001F034FF9E2305005E
:1089B0001B1A962B0FDC082801DD083DAE4076021D
:1089C000760AD8B202E0002400200026C005304319
:1089D000E4072043F8BD992B0CDD05223100121A63
:1089E000D1400A00010030001B318840411E8841FF
:1089F00002431600052D12DC31000D4F394072077D
:108A000009D00F203040042805D004314A0102D596
:108A10009F2339405B1B89014E0AD8B2D6E76A1FF3
:108A200096403100024F39407207F4D0E9E7C04662
:108A3000FFFFFFFBF0B54F464646D6460D0004004B
:108A4000C0B51F0011002803620F400A10437A00CE
:108A5000520DE3003C039146640AFA0F4F0F6E007B
:108A600027439246B846760DED0FC900954200D1D6
:108A700099E04C46341BA446002C00DC7CE04A46BE
:108A8000002A00D1B8E0C54A964200D11CE18022FC
:108A90003C0012041443A0466246382A00DD61E11E
:108AA0001F2A00DDCCE164462022121B444694407C
:108AB0000F00A14664469140E7404C464A1E914152
:108AC0003C43424621436446E240801A5C1AA3427A
:108AD0009B415F42C71B3B0200D4D0E07F027F0A6C
:108AE000002F00D1FFE0380001F094FE01000839AA
:108AF000202322005B1A8F40DA408C401743B1429A
:108B000000DAFFE0891B4B1C1F2B00DDA8E02022B0
:108B10003900D21A200094409140D840621E9441FE
:108B2000DF40002601430C43630709D00F23234095
:108B3000042B05D0231DA342A44164423F191C000D
:108B40003B0200D49EE0954B01369E4200D1B7E037
:108B5000934AE40817407B0771057F0223433F0BCC
:108B60004A0D12053A43ED072A4318001100E0BCF4
:108B7000BA46B146A846F0BD002C4BD04C46A41BCB
:108B8000A446002E00D023E104001C4300D1AFE135
:108B90006246541E012A00D115E2804DAC4500D139
:108BA000C8E1A4461BE14A46B21A9446002A00DCFA
:108BB000ACE04A46002A43D0784A964200D1AFE161
:108BC00080223C0012041443A0466246382A67DC27
:108BD0001F2A00DC5FE14746203AD7406246202A40
:108BE00005D064464022121B4446944021434A1E4D
:108BF00091410C003C4357E03A000A4300D105E1A3
:108C00002200013A012C00D182E1644CA4455BD0E2
:108C1000944641E7634C771C274200D0C4E004002F
:108C20001C43002E00D069E1002C00D1BFE1444676
:108C30000C4300D0D0E14207DB081343C00829E011
:108C40003A000A4300D170E162466446013A012CC1
:108C500000D1E0E0514CA44500D161E19446B4E775
:108C60003A001F39CA401100202B03D04022D31AEA
:108C70009F403C43631E9C41002700260C43630732
:108C800000D053E7B446E4087B072343F808434A7F
:108C900094451DD06246070352053F0B520D60E715
:108CA00044460C43621E9441E4189C429B415F423F
:108CB0003F183B02E3D5394B01369E4200D0B5E068
:108CC0003200002700234CE74207DB081343C008AB
:108CD0001A00024300D1E1E180273F0307433F032D
:108CE0002E4A3F0B3DE7200001F094FD01001831B2
:108CF0001F2900DCFCE60838844027000024B1422C
:108D000000DBFFE6264A761A17400DE7002A2FD02F
:108D10004A46921B9446002E00D1ADE01F4A914571
:108D200000D10FE18022120410436246382A00DD90
:108D30000FE11F2A00DD80E1644620221E00121B85
:108D40006746040093409440FE405A1E9341F84009
:108D500034431C43804464188C42BF417F424E46DA
:108D60004744A6E742460A4311004A1E9141ADE638
:108D70000C4C721C224200D0A1E002001A43002ECB
:108D800000D0FAE0002A00D145E13A000A4300D0C1
:108D900046E14207DB081343C0087BE7FF070000FA
:108DA000FFFF7FFFFE07000047465C1AC21BA3427D
:108DB000BF417F42B94617004A46BF1A3A0200D562
:108DC0008DE023003B4300D08AE60020002561E7C8
:108DD000B44CA14500D1ADE0802424042043644676
:108DE000382C3DDC62461F2C00DDB7E020251E003C
:108DF0002D1B0400AB40AC40D640D04042465D1E27
:108E0000AB413443121A904623432CE04207DB085F
:108E10001343C0083BE75C189C429B4140445B42C3
:108E2000C71801263B0200D429E702269E4A6308A0
:108E30001740012214401C43FB071C437F0873E6C4
:108E40004446203AD4406246202A05D06746402254
:108E5000D21B4746974039434A1E9141214335E68C
:108E60000343581E8341CC1AA142BF4143467F426F
:108E700055464E46DF1B2EE602001A4300D1BDE0E8
:108E800062466446013A012C00D1E5E0854CA445D8
:108E900058D0944649E764462022121B4446944029
:108EA0000F00A14664469140E7404C464A1E91415E
:108EB0003C4342460C436146CA408018F4E6794C74
:108EC000A24200D1FDE6591899429B4140445F42BD
:108ED000C719FC07490816000C437F08CFE6CC1AD7
:108EE000A142BF4143467F42181A5546C71BF7E5CA
:108EF000C9087B0755460B43F808C8E6002C00D08C
:108F000081E043460B4315D1802000250003E3E6B2
:108F10005C1AA3429B41C71B5B420126FF1ADAE59C
:108F20004207DB081343C008D2E64207DB081343BD
:108F3000C008ACE643464246C9085B0755460B43AA
:108F4000D008C5E6434642465B07C9080B43D00834
:108F5000BEE603431C00631E9C41FCE60200203C6D
:108F6000E24014006246202A03D04025AD1AA840F2
:108F70000343581E8341234375E7002AE2D03A0099
:108F80000A43CDD04207DB0813438022C0081203F6
:108F9000104206D0FC08144203D12000CB087A0707
:108FA00013435A0FDB005207DB08134390E6434696
:108FB0000B4300D109E743464246C9085B075546C3
:108FC0000B43D00866E6CC1AA14289413F1A4942B8
:108FD000554601267F1A7EE542465C1A871AA3424F
:108FE00092415242BF1A3A023DD5CC1AA142894160
:108FF000434649421F1A55467F1A95E57B07C90823
:109000000B43F80843E64446DB080C4330D14207E3
:109010001343C0085CE67B07C9080B43F80839E630
:109020005C189C429B4140445B42C7183B0200D401
:1090300025E61D4B01261F4021E60400203AD440BE
:109040006246202A04D040226646921B9040034389
:109050005A1E93411C437EE65C188C428941404471
:1090600049424718DDE623003B4300D1ADE606E662
:10907000440723438024C0082403204208D04246EA
:10908000D608264204D155463000CB0851070B4381
:109090005A0FDB00DB085207134319E60023014A8D
:1090A0001F005EE5FF070000FFFF7FFFF0B557469A
:1090B0004E464546DE46E0B5814605000C034800B5
:1090C00092461F0085B0240B400DCE0F002800D122
:1090D00056E1D44B984200D172E16B0FE4001C437F
:1090E00080231B0423439846CF4BED009B4600236F
:1090F0009946834400933C037B005046240B5B0D50
:10910000FF0F002B00D11FE1C64A934200D162E15C
:10911000C549420F8C46E4005946144380226344FB
:109120001204CB1A14439B46C200002033007B403C
:109130009A464B460F2B27D8BC499B00CB589F46DD
:10914000B246009B022B16D0032B00D18EE2012BDE
:1091500000D0D9E000230024002552461B052343FC
:10916000D20713432800190005B0F0BCBB46B24635
:10917000A946A046F0BD00240025AA4BEDE7BA465B
:10918000A04615000090DCE7444500D2C7E100D1BD
:10919000C2E101235B429C462E0040460025E34489
:1091A0002302140E1C431B0C994623041F0C1202AD
:1091B000494600920197FEF7DDFC02007A430B045A
:1091C000310C804619438A4207D901235B429C46F1
:1091D0000919E0448C4200D807E2881A4946FEF794
:1091E000C9FC09048C4631046646019A090C4243C5
:1091F000030031438A4204D90919013B8C4200D84B
:10920000EDE1881A424612041A4390464146009BFB
:109210000E041B0C1F000293009B360C1B04190C40
:109220000B007343120C7E43039151437A431F0C8E
:10923000BC4676186644B14203D9802149028C4667
:109240006244310C8A1831041E04360C8E19904287
:1092500002D312D1B54210D24346591E009B9C4600
:1092600065441F009D429B415B421B19C01884420C
:1092700000D2A0E100D19BE18846AE1BB542AD41D2
:10928000801A6D42401B844200D1D5E14946FEF769
:1092900071FC019A0B044243310C050019438A42C8
:1092A00000D96CE1881A4946FEF764FC019A36043D
:1092B00042430904360C03000E43B24200D953E185
:1092C0000398B61A02002D041D43029F2B041B0CA9
:1092D0005A437B439C46290C4843130C8444634403
:1092E0007943984203D98020400284466144180C97
:1092F00012041B04120C41189B188E4200D2FFE08E
:1093000000D1FAE001231D43494A5A44002A00DCF7
:10931000AAE06B0700D03DE1ED084346DB0106D52E
:109320004246444B1A4090468022D2005A44424B57
:109330009A4200DD1FE743465B071D434346520543
:109340005C02240B530D08E75246224300D17BE018
:10935000002C00D1FAE0200001F05CFA02000B3A88
:109360001D2301009B1A52460839DA408C401443F1
:1093700052468A40314B58449B4683440020D5E6F0
:109380004B462343984644D0002C00D1CEE0200029
:1093900001F040FA010002000B391D235B1A494617
:1093A0001000D940083884400B004D4623439846AE
:1093B00085402348831A9B460023994600939AE6EA
:1093C0004B46234398461DD108239946063B00256A
:1093D000834600938FE65246224309D10223494631
:1093E0001943184B89469C4600240220E3449DE61D
:1093F00003234A461A43134B91469C465246032088
:10940000E34493E60C239946093BA0468346009328
:1094100071E60423994600239B46013300250093FF
:1094200069E6C046FF07000001FCFFFFD0BC010851
:10943000FF030000FFFFFFFEFE070000F303000034
:109440000DFCFFFF01F8FFFF494601231943894640
:10945000002401206AE6002380249A4600258A4BD6
:1094600024037AE601256D4201239B1A382B00DD87
:1094700070E61F2B00DCBFE01F2149428A1A4146DB
:10948000D1400A00202B04D04146804B5B449940D8
:109490000D436B1E9D4107232A431D0000241540E8
:1094A000134200D1D4E00F2100231140042900D140
:1094B000CBE0111D9142924152429B180A001902C1
:1094C00000D4C2E001230024002546E68023414663
:1094D0001B03194208D01C4206D11C432403BA4680
:1094E0001500694B240B38E68024434624031C43B3
:1094F0002403B246644B240B2FE6002B00D103E774
:10950000A619681EA64200D28DE08E4200D2A3E0CA
:1095100000D1B3E00500F5E6AA4200D939E643469A
:10952000DE0758086B081E43ED0739E6484601F090
:1095300071F901000200153120321C2900DC2CE7F2
:109540004B46083883400025984632E701F062F91F
:1095500003001A00153220301C2A00DC00E75446B4
:10956000083B00229C4005E73619013BB44200D974
:10957000A6E6B24200D8A3E6831E3619A0E6091972
:10958000013D8C4200D98DE68A4200D88AE6851ECC
:10959000091987E60F232B40042B00D1BCE60523D5
:1095A0005B42AB429B4104355B42ED089844B4E614
:1095B000AF4200D960E6824204D800D05CE6AE42F9
:1095C00000D859E602235B429C46009BE0449C463F
:1095D00065449D429B415B421B19C0184DE68A427F
:1095E00000D80EE6831E09190BE68A4200D8F4E57E
:1095F000831E98460919F0E52549280059448D40F5
:1096000042468A40691E8D414146D840D9400243B6
:109610002A430B00510700D151E70F2111400429C3
:1096200000D046E74BE705008E4200D06AE6009A7C
:10963000934200D066E667E6164A5A44002A00DCE8
:1096400010E701230025984467E65D075B021C0BC9
:10965000D2080023154380E50098023D4200824273
:10966000BF417F423C1936190092DDE78024434612
:1096700024031C432403044B240B6EE5009A9A42F6
:10968000EAD30500D3E7C046FF0700003E04000010
:109690001E040000FF030000F0B54E464546DE46BE
:1096A00057469046E0B517001A03120B0500844692
:1096B00019480E034C0091465A00DB0F9B46360BAF
:1096C000640DC90F520D844219D0824210D001207E
:1096D00094420ED14E450CD10120C44509D15945C3
:1096E00017D0002C05D130002843431E984100E0DC
:1096F0000120F0BCBB46B246A946A046F0BD3300EF
:1097000001202B43F5D1A242F3D14B463B43F0D18C
:10971000E2E70020EDE7C046FF070000F0B547464E
:10972000CE460400180016001B031B0B2D4D4A00EB
:10973000994680B543000F03A446B0463F0B520D37
:10974000C90F5B0DC00FAA4221D0AB4213D0002A33
:1097500022D13C43002B02D14D462E4322D0002C77
:1097600010D0814222D00220013908400138C0BC0B
:10977000B946B046F0BD4D462E4329D1002AF0D15E
:109780003C43EED10028F2D101204042EFE73D00FA
:1097900025431DD19342EED0002BE2D14C46264307
:1097A000DFD1E0E70020002CE1D0DCE79A420ADCC0
:1097B000E8DB4F45D7D80ED000204F45D7D200293F
:1097C000E2D00800D3E74342584140000138CEE7D9
:1097D00002204042CBE7C445C5D80020C445C6D2CC
:1097E000EDE7C046FF070000F0B54746CE4604004F
:1097F000180016001B031B0B2C4D4A00994680B520
:1098000043000F03A446B0463F0B520DC90F5B0D3A
:10981000C00FAA420DD0AB4210D0002A27D13C4342
:10982000002B11D14D462E430ED10020002C15D017
:109830000EE03D00254310D1934218D14D462E43F2
:109840000BD1002A02D13C43002C0BD0814214D012
:10985000022001390840013800E00220C0BCB946AE
:10986000B046F0BD0028F9D101204042F6E7002BB8
:10987000ECD14C462643E9D1EAE79A4204DD434263
:10988000584140000138E9E79A42EBDB4F45DFD809
:1098900006D000204F45E1D20029E5D00800DDE7E1
:1098A000C445D5D80020C445D8D2F5E7FF0700004D
:1098B000F0B557464E464546DE46E0B598460C03A1
:1098C0004B000600924687B0240B5B0DCF0F002B98
:1098D00000D15CE1D94A934200D175E1420FE40026
:1098E0001443802212041443D54AC50094466344AD
:1098F0000093002399469B46434642461E03D20FDF
:109900005B0050469046360B5B0D00D120E1CB4A00
:10991000934200D162E1CA49420F8C4600996344E8
:10992000F6008C46164380229C441204634616437C
:10993000C200002000930099434601318C464946FD
:109940007B4001930F2926D8BE4B890059588F467A
:10995000434601933400150083465B46022B16D024
:10996000032B00D103E2012B00D0CDE00022002424
:109970000025019B12052243DB071A432800110032
:1099800007B0F0BCBB46B246A946A046F0BD0024D5
:109990000025AA4AEDE7280C2D042D0C2B00110CF4
:1099A0001204120C5343984613002F004343994668
:1099B0004F434F44BB4647460B003F0CBA46434318
:1099C000DA440293D14504D980277F02B9464B443B
:1099D000029353461B0C9B4653461F0443461B04ED
:1099E0001B0C98463B0043440493330C3604360C5E
:1099F0009846330043439946434643432F009A46D3
:109A0000434677435D43380C4D444519A94503D976
:109A100080235B029946CA443F04280C3F0C2D0466
:109A2000ED19270C2404240C0300200050437A4332
:109A300091463A0053440593030C9A464A436143C6
:109A400049445144AB44894503D980235B0299467C
:109A50004A4400040B0C000C090409182000994624
:109A6000434670435C437E435F43030C9846A4190E
:109A700044444A440397A64204D980235B02984693
:109A8000474403972304029E9A46059B5E449846EA
:109A9000AE42AD4176188E4289410004000C50441C
:109AA00040446D424719B846934649428946C344EB
:109AB000D94498428041A845AD419345924189459A
:109AC00089416D4240422843240C524249420A4394
:109AD000039B00198018C7184B46DC0D049B7502C8
:109AE0001D436A1E95414B46F60D7F0235435A02CF
:109AF0003C431543FB0100D41CE101216A080D40E1
:109B00001543E207154364084F496144002900DC0E
:109B1000B0E06B0709D00F222A40042A05D02A1D85
:109B2000AA42AD416D4264191500E30104D58021BC
:109B3000464AC90014406144454A914200DD26E787
:109B40006207ED08640249051543240B4A0D10E72E
:109B50005246324300D17FE0002E00D1DCE03000DD
:109B600000F058FE02000B3A1D2301009B1A5246DA
:109B70000839DA408E40164352468A40009B3549E8
:109B8000181A03008C46634400200093D3E6250096
:109B900005434AD0002C00D1B0E0200000F03AFE8E
:109BA000010002000B391D2310005B1A3100350043
:109BB00008388440D94085400C432648831A0093D6
:109BC000002399469B4697E60500254326D10822A7
:109BD00000930223002491469B468DE65246009B4B
:109BE000324310D1154900268C4663444946009300
:109BF00002231943894602209DE65B460197022B0A
:109C000000D0ADE6C3E60D4A0320944663444A46BD
:109C1000009303231A43914652468CE60C2200938C
:109C20000323050091469B4666E6042399460023DC
:109C30000093013300249B465EE6C046FF07000008
:109C400001FCFFFF10BD0108FF030000FFFFFFFE46
:109C5000FE0700000DFCFFFF49460123194389461A
:109C60000026012067E6002380240025434A019353
:109C700024037EE60120401A382800DD76E61F28FE
:109C80005BDD1F2223005242511ACB4019002028CD
:109C900003D03B4A6244944025436A1E95412A0002
:109CA0000A4307210D000024154011425BD00F210B
:109CB00000241140042953D0111D91429241524277
:109CC000A4180A0023024BD501220024002550E6E7
:109CD00080231B031C4209D01E4207D133431C03BF
:109CE00043461500240B254A019342E680221203C5
:109CF00014432403214A240B01973AE600F08AFD1D
:109D000001000200153120321C2900DC4BE7340031
:109D100008380025844050E700F07CFD03001A005D
:109D2000153220301C2A00DC1EE75646083B002274
:109D30009E4023E7009B9C46E6E6124922006144D0
:109D40002E008D408A40C640691E8D4132432A4311
:109D5000C4405307B6D00F2111400429ACD1B1E75C
:109D600065076402240BD2081543002201E6802215
:109D7000120314432403014A240BFAE5FF070000F1
:109D80003E0400001E040000F8B557464E46454606
:109D9000DE46E0B51E0017004A000B03520D5B0AB9
:109DA0009046420F1A43CD0FCD4C3103C300944669
:109DB00070007A0F490AFF009A46B946400DF60F27
:109DC0001143A04200D1B1E001225640B346B54252
:109DD00000D188E04246121A002A00DCAEE00028DA
:109DE00000D1C1E0BE48804500D151E1802000048F
:109DF0000143382A00DD7BE11F2A00DDEEE120204F
:109E00003E00801A0C00D640D14087406246844014
:109E1000521A781E8741944634432743DC1BA342E1
:109E20009B4162465B42D31A99464B461B0200D4C3
:109E300018E14B465802430A99464B46002B00D185
:109E400037E1484600F0E6FC0100083920232200F3
:109E500048465B1ADA4088408C40434610438845A8
:109E600000DD36E1C91A4B1C1F2B00DDEAE0202281
:109E70002600D21A01009440DE40D84000239140D1
:109E8000621E94418146984631430C43630709D0D2
:109E90000F232340042B05D0231DA342A441644279
:109EA000A1441C004B461B0200D4DEE041468C4B13
:109EB0000131994200D1E7E04B468A48E40803406B
:109EC000180049055B07400223434A0D040B1205A5
:109ED000ED0722432A4318001100F0BCBB46B246EE
:109EE000A946A046F8BD4246121A002A52DD0028B3
:109EF00000D19CE0A04500D1CAE0802000040143CD
:109F0000382A00DD49E11F2A00DC97E110000E002D
:109F10002038C640202A04D04020821A91400F43A6
:109F2000B9464C46621E944134433AE10A003A4332
:109F300028D0B346B5422BD06B4A4244002A5DD0AC
:109F400042464446821A002C00D0F5E065461D4387
:109F500000D19CE1551E012A00D1FBE1604CA242D8
:109F600000D1BDE12A00F0E00800384300D1C3E091
:109F7000501E012A00D1A8E1594CA24200D187E02D
:109F8000020036E701225640B346B54200D021E731
:109F9000554A4244002A00D1B5E042464446821A5E
:109FA000002C00D138E14E4EB04200D1DEE18026D7
:109FB000644636043443A446382A00DD96E11F2A5D
:109FC00000DD24E22026B41AA24664465646B44078
:109FD000A1461C004E46D440264334005646B340AA
:109FE0005E1EB3411C436346D340C918E419BC420A
:109FF000BF417F42B94680468944D8E040463B4C49
:10A000000130204200D0B4E04046002800D044E1B6
:10A010006046184300D190E10800384300D0AAE11F
:10A020006146DB0849070B436146CC0827E008007E
:10A03000384361D0501E012A00D139E1A24227D015
:10A0400002005DE702001F39CA401100202B03D037
:10A050004022D31A98400443631E9C410023994632
:10A0600098460C43630700D012E74B464A46E40883
:10A070005B072343D408424619498A420ED0240381
:10A080005205240B520D22E70A00002400231EE78C
:10A09000DB086246520713436246D4081A00224383
:10A0A00000D1FCE180221203144324030C4A240B48
:10A0B0000DE7200000F0AEFB010018311F2900DC85
:10A0C000C4E608388440434620000024884500DC6C
:10A0D000C8E6044A5B1A104098468146D6E6C04658
:10A0E000FF070000FFFF7FFF01F8FFFFFE070000F2
:10A0F0000F437A1E974191E66146DB0849070B43FF
:10A100006146CC08B8E74046D34C0130204200D02D
:10A11000A2E04046002800D001E16046184300D18B
:10A120005EE10800384300D05FE16146DB08490783
:10A130000B436146CC08A2E7C84DA84200D1CFE04E
:10A14000802564462D042C43A446382A56DC1F2A59
:10A1500000DDD1E020251E00AD1A6446AB40AC40C6
:10A16000D6405D1EAB41344323436446D440091BB3
:10A1700049E06046DC1B461AA342804140428146CA
:10A1800030004E46801B8146000276D44B46234366
:10A1900000D052E60024002571E739430C00621E0E
:10A1A0009441E4189C429B415B42634499464B4670
:10A1B0001B0200D456E701239C46A84BE044984577
:10A1C00038D04B46A64801220340180063081440CB
:10A1D0001C43C3071C434308994657E610000E0072
:10A1E0002038C640202A04D04020821A91400F43D4
:10A1F000B9464F467A1E974137430FE662461A43E7
:10A2000013005A1E9341FC1AA742BF417F42CB1B49
:10A2100099465D46804608E666461E4300D1BEE08C
:10A22000561E012A00D109E18C4CA24200D119E14D
:10A230003200C1E642460024002348E620200C00FC
:10A24000801A3E0087408440D640781E8741D14026
:10A2500034433C438C44A4E7804A904200D1E9E077
:10A26000DF199F429B4161445B42C918CC077F08BC
:10A270004B08994680463C43F4E6FC1AA742BF418E
:10A2800063467F42C91ACB1B99465D46D5E5FF0858
:10A290004B075D463B43CC08EEE662461A4300D0CE
:10A2A00082E00B003B431BD1802400252403F9E608
:10A2B000DC199C429B41614489465B4299444B4670
:10A2C0001B0244D401239846CCE6DC1B6246A34221
:10A2D0009B41511A5B42CB1A994601239846A4E54B
:10A2E000FF084B075D463B43CC08D7E662461A435E
:10A2F0001400631E9C4179E615006446203DEC4045
:10A30000A046202A05D040256446AA1A944023433B
:10A310009A465446631E9C414346234373E7624674
:10A320001A4323D00A003A4300D0A0E06246DB087B
:10A33000520713436246D408B0E60B003B4300D1FA
:10A3400028E7FF084B075D463B43CC0897E602230E
:10A35000984636E7FC1AA742BF4163467F42C91AB6
:10A36000CB1B994601235D4698465EE54B07FF08E7
:10A370003B43CC0892E6DC1B6046A342B641401A40
:10A380007642801B8146000260D5FC1AA742BF417D
:10A3900063467F42C91ACB1B99465D4676E5FF08A6
:10A3A0004B073B43CC0867E60A00DB083A4300D181
:10A3B0006FE66246520713436246D40880221203B6
:10A3C000144207D0C808104204D15D460400FB08BF
:10A3D00049070B435A0FDB00DB08520713435DE6C6
:10A3E0004B07FF083B43CC0849E6DC199C429B41E4
:10A3F000614489465B4299444B461B0200D431E6D6
:10A400004A46174B1A400123914698462AE6160001
:10A410006446203EF440A046202A05D040266446EB
:10A42000B21A944023439A465446631E9C414346C5
:10A430001C43DBE502000024002348E5DC19BC4294
:10A44000BF41614489467F42B94438E74B462343C4
:10A4500000D19FE606E6C046FE070000FF070000A9
:10A46000FFFF7FFFFF084B073B43CC0816E6624621
:10A47000DB08520713436246D408802212031442B9
:10A4800007D0C808104204D15D460400FB08490704
:10A490000B435A0FDB005207DB081343FEE5002392
:10A4A000014A1C0013E5C046FF07000070B5050017
:10A4B0000C481C0316005B000A034900120B490DEF
:10A4C000240B5B0D814208D0064A0020934203D141
:10A4D00020003043431E984170BD01202A43FBD128
:10A4E000F2E7C046FF0700000A0030B5134C5300E6
:10A4F00009030500090B00205B0DD20FA34204DD08
:10A500000F48834202DD0F4BD01830BD802040033E
:10A5100001430D48C01A1F2808DD0C48C31AD94052
:10A520000B005842002AF0D11800EEE7084CC54055
:10A53000A446634499400B002B43F2E7FE0300005E
:10A540001D040000FFFFFF7F330400001304000020
:10A55000EDFBFFFF70B5002816D0C317C5185D408E
:10A56000C40F280000F056F9114A121A0A2816DC06
:10A5700003002E0015339E400B23181AC5405205C8
:10A580002D032D0B530D03E000240023002500268E
:10A590001B052B43E40723433000190070BD0B3823
:10A5A000854052052D0300262D0B530DF0E7C046C4
:10A5B0001E04000010B5041E10D000F02BF90F4B44
:10A5C0001B1A0A2811DC0B222100121AD140153067
:10A5D0000A035B058440120B5B0D01E0002300229F
:10A5E0001B0513432000190010BD22000B388240C8
:10A5F0005B0512030024120B5B0DF1E71E04000043
:10A6000070B543004602C40FFE201B0E591C750A8C
:10A6100008420CD0E022920094466D07360B63444A
:10A620001B053343E40723432800190070BD002BAA
:10A6300014D1002D1BD0280000F0ECF80A281CDCF7
:10A640000B232E001B1ADE40030015339D400E4ADB
:10A650003603121A5205360B530DE1E7002D09D0CF
:10A660008022360B1203094B6D071643D8E70023EF
:10A670000026D5E70026054BD2E703000B3B9D40A3
:10A680002E000025E3E7C04689030000FF07000015
:10A6900002004B00F0B55B0D0C033D4E640A400F09
:10A6A0005F1CC90F0443D50037420AD039481E1831
:10A6B000FE2E16DDFF200024C0052043C9070843F5
:10A6C000F0BD002B06D12C4326D005229201540A5E
:10A6D000D8B2F1E72543EDD08020C0030443FF202A
:10A6E000EAE7002E1BDD9201531E9A41E4006D0F34
:10A6F00022432A43530748D00F231340042B00D092
:10A7000004328023DB0413403FD0701CFE2ED1D0D6
:10A710009201540AC0B2CFE700200024CCE73200F7
:10A72000173222DB8020000420431E24A41B1F2C90
:10A730001DDD02225242961B0200F2401600202C20
:10A7400004D0154A94466344984005432A00531E9A
:10A750009A41324300265307CED180241300E404EB
:10A76000012023402242D3D1B0E70023ADE70B4ABA
:10A7700094462A00E24014002A0063449A4098401C
:10A78000551EAA4102432243E4E733009EE7C04638
:10A79000FE07000080FCFFFFA2FCFFFF82FCFFFF22
:10A7A000844608006146FFE71FB500F0BDF80028A9
:10A7B00001D40021C8421FBD10B500F049F8404245
:10A7C000013010BD10B500F0AFF8002801DB00200B
:10A7D00010BD012010BDC04610B500F0A5F800283E
:10A7E00001DD002010BD012010BDC04610B500F0F5
:10A7F00055F8002801DC002010BD012010BDC04626
:10A8000010B500F04BF8002801DA002010BD01203F
:10A8100010BDC0461C2101231B04984201D3000C2B
:10A8200010391B0A984201D3000A08391B099842C3
:10A8300001D30009043902A2105C40187047C046D9
:10A8400004030202010101010000000000000000F9
:10A8500070B5420045024E024C00C30F6D0A012044
:10A86000120E760A240EC90FFF2A06D0FF2C03D041
:10A87000A24201D1B54206D070BD002DFCD1FF2C03
:10A88000FAD1002EF8D18B4206D00120002AF3D154
:10A890002800431E9841EFE70020EDE770B5420025
:10A8A00045024E024C00C30F6D0A120E760A240EAA
:10A8B000C80FFF2A1BD0FF2C0ED0002A1BD1002C62
:10A8C00001D1002E1CD0002D0CD083421CD00221BF
:10A8D000581E0840013870BD002E22D1002AF4D144
:10A8E000002DF2D10028F6D101204042F3E7002DDF
:10A8F00017D1FF2CF0D0002CE7D1002EE5D1E6E7F0
:10A900000020002DE7D0E2E7A24205DCEADBB542F9
:10A9100002D8E7D30020DEE7434258414000013827
:10A92000D9E702204042D6E770B5420045024E0208
:10A930004C00C30F6D0A120E760A240EC80FFF2AB0
:10A940000BD0FF2C0DD0002A1FD1002C16D1002EC9
:10A9500014D10020002D10D009E0002D0CD1FF2CC7
:10A9600013D1002E08D1002A08D0834212D0022130
:10A97000581E0840013800E0022070BD002DF4D1BF
:10A980000028FAD101204042F7E7002CEDD1002E3B
:10A99000EBD1ECE7A24205DCF2DBB54202D8EFD303
:10A9A0000020EAE74342584140000138E5E7C0464D
:10A9B0000A00022370B5040004480568A96819421A
:10A9C000FCD06423210006F07CF970BDD803002080
:10A9D00013B56B46D91D0223087005480468A268A8
:10A9E0001A42FCD06423012206F06BF913BDC04665
:10A9F000D803002010B500220121034804F07EFB9B
:10AA0000012004F0B1F810BD000C0048012210B57F
:10AA10001100034804F072FB012004F0A5F810BDFA
:10AA2000000C00481FB50E21FF2309486944046843
:10AA30000B70FD3BA2681A42FCD00F2464236C44C7
:10AA400000932200633B06F007FA207804B010BDA3
:10AA5000D803002013B5FFF7D9FF0A24FF20013CDB
:10AA6000FFF7B6FF002CF9D1FFF7C4FF6A46402379
:10AA70001370952354709470D47014710621684635
:10AA800080245371FFF794FFA401FFF7CBFF012847
:10AA900002D0013C002CF8D1FFF7B8FFFF20FFF7F0
:10AAA00097FF0122014B1A7013BDC04645030020D9
:10AAB000FA2310B5054C5B002380FFF7B3FFFF2896
:10AAC00002D02388002BF8D110BDC04648030020D7
:10AAD00070B506000D000024FFF7EAFF0300200018
:10AAE000FF2B24D12800FFF773FFFD2D19D0802103
:10AAF00030008900FFF75CFF4125FFF793FF1F2619
:10AB0000FFF790FFFFF78EFF030004003340052B93
:10AB100003D0013DEDB2002DF4D1FFF783FF0028F3
:10AB2000FBD01F200440053C63425C41E0B270BD95
:10AB300070B505000C00FFF7BBFF0300FF20834248
:10AB400026D12800FFF744FF200EFFF741FF200C1D
:10AB5000C0B2FFF73DFF200AC0B2FFF739FFE0B2F5
:10AB6000FFF736FF9520402D03D00E38482D00D03A
:10AB70008638FFF72DFF4C2D01D1FFF753FF0A2434
:10AB8000FFF750FF030603D5013CE4B2002CF7D1D8
:10AB900070BD0000C82370B505000C000D4E338059
:10ABA000FFF740FF0300FF2803D130880028F7D1CA
:10ABB00070BD0020FE2BFBD12600FFF733FF2B19C1
:10ABC00072429854013EF8D2FFF72CFFFFF72AFF9C
:10ABD0000120EDE7460300200123F7B5002808D146
:10ABE00002250222464E33781D40134203D03378AB
:10ABF000DBB21800FEBDFFF72DFFFFF7FBFE2900BB
:10AC00004020FFF795FF0400012822D1FA23D52127
:10AC10003C4F9B00482049003B80FFF789FF0128FB
:10AC20003FD1FFF7FFFE01AC60550135042DF8D18F
:10AC3000A378012B0DD1E378AA2B0AD18025ED054D
:10AC400000217720FFF774FF012804D93B88002BEF
:10AC5000F6D1002418E029006920FFF769FF011EE2
:10AC6000F4D13B88002BF4D07A20FFF761FF051E5A
:10AC7000EFD1FFF7D7FE60550135042DF9D12378C8
:10AC80000C245B0600D42C001F4B1C70FFF7BEFE8B
:10AC9000FFF7C8FE002C2FD0012233789343337086
:10ACA000A5E729007720FFF743FF012806D82900F0
:10ACB0006920FFF73DFF012800D802240021412030
:10ACC000022C0AD17720FFF733FF012803D93B88F4
:10ACD000002BF3D1BDE700216920FFF729FF0028F1
:10ACE000F5D13B88002BB4D0802150208900FFF79C
:10ACF0001FFF0028C8D0ACE7044B1C7077E7C046A4
:10AD0000C00000204603002044030020450300202B
:10AD10000123002802D1024B1B78DBB218007047D8
:10AD2000C0000020F8B507000D0016001C0004202C
:10AD3000002F23D1002B21D01D4B01381B78DB07BE
:10AD40001CD41C4B1B785B0700D45602FFF752FE45
:10AD50003100012C13D15120FFF7EAFE002806D163
:10AD6000802128008900FFF715FF44424441631EFB
:10AD70009C41FFF74BFEFFF755FEE0B2F8BD5220B5
:10AD8000FFF7D6FE0028F2D18026B6003100280059
:10AD9000FFF700FF002805D08023013C9B00ED1841
:10ADA000002CF3D100214C20FFF7C2FEDFE7C046A4
:10ADB000C000002044030020F8B507000D00160075
:10ADC0001C000420002F27D1002B25D0254B013853
:10ADD0001A78D20720D41A78042301381A421BD1DA
:10ADE000214F3A781A4200D17602FFF703FE012C78
:10ADF00013D131005820FFF79BFE002830D1FE21EF
:10AE00002800FFF765FE44424441631E9C41FFF762
:10AE1000FDFDFFF707FEE0B2F8BD3B789B0707D5C5
:10AE200000217720FFF784FE21005720FFF780FEE6
:10AE300031005920FFF77CFE0028E6D1FC212800D4
:10AE4000FFF746FE002805D08023013C9B00ED184B
:10AE5000002CF3D1FD210020FFF73AFE0028D4D1C9
:10AE60000124D2E7C0000020440300207FB5040085
:10AE70000E001500002800D092E0052913D11378A8
:10AE8000012B09D0022B0AD0002B00D088E0464BC2
:10AE90001870200004B070BDFFF7DCFDF9E7424BED
:10AEA0001B785370F5E7414B1A78012314001C40BE
:10AEB0001A4277D1FFF79EFD0D2E67D83000FCF7C0
:10AEC000B5FD48074465656565656565654F5C5F0B
:10AED00000214920FFF72CFE041E05D00124FFF7B6
:10AEE00095FDFFF79FFDD4E710216846FFF752FE5E
:10AEF0000028F3D06A466B461278597A92091B7A79
:10AF0000012A06D11B0201315B189BB29B022B6008
:10AF1000E5E76A46D2799B0992009B186A46C020F1
:10AF2000927900019202024001339B186A460F2079
:10AF30005279490002406846807AC00912180620FA
:10AF400001405218073A9340E1E780239B002B8091
:10AF5000C5E7FFF7ADFDFF38431E9841C4B2BEE719
:10AF600000214920FFF7E4FD0028B7D11021280077
:10AF7000FFF710FE43425841F0E700214A20F1E775
:10AF800000217A20FFF7D4FD002801D00424A6E791
:10AF90002C1DFFF747FD28700135A542F9D1F5E7D3
:10AFA000042476E7032474E745030020C000002052
:10AFB00030B585B00D00040003F064FE34220C4B64
:10AFC0006946DA6000230093019380235B02E41852
:10AFD000E40201A80294039503F002FF0400631E3B
:10AFE0009C4103F063FE6042C0B205B030BDC04674
:10AFF00000200240F7B5002706000D0001923C003A
:10B0000003F040FE019B9F4201D0002C03D003F0CF
:10B010004DFE2000FEBD0E4B01249E4214D82A682E
:10B020006B683100032003F075FE041E00D002247B
:10B03000326873682968914202D16968994202D0E6
:10B0400004231C43E4B2083601370835DAE7C0466A
:10B05000FFFF0108F8231B06C018C00A7047000054
:10B06000074B82B01A69196901231800D20A90436C
:10B070000200890A8B431802104302B07047C04691
:10B08000000C00480122014B1A7070479C050020FB
:10B09000704700000122F0B5037885B005000292E8
:10B0A0002D2B02D12E3B85180293002300241F0074
:10B0B0000193261C16E001352E2833D03038C3B258
:10B0C000092B0FD8FDF768FC019B1C490390002B4E
:10B0D00020D0201CFDF756F90399FCF79DFE01379F
:10B0E000041CFFB228780028E5D1002F1DD102985A
:10B0F000FDF752FC211C051C301CFCF78DFE011CC9
:10B10000281CFDF73FF90E49FDF73CF9FDF724FC3B
:10B1100005B0F0BD301CFDF735F90399FCF77CFE56
:10B12000061CDFE701230193DCE7201C0349FDF740
:10B1300011F8013F041CFFB2D7E7C04600002041D0
:10B140000000C842E0221148114B10B50360822371
:10B15000D200C26080225B004360002392008261C3
:10B16000E93AFF3A836003614361C261036243626B
:10B170008362113A03630833C262436305F012FD30
:10B18000002801D072B6FEE710BDC046D8030020EB
:10B190000038004070B5304C0822A5442F4902A861
:10B1A0000DF04AFA2E492F4808F0DAF92E492F48B7
:10B1B00008F0EAF92E492F4808F0FEF902A9080024
:10B1C00008F04EFA90202C4C06222100000108F0D5
:10B1D000B9F8002004A908F0E7FC2848284A010033
:10B1E00008F0ECFA03F0BAFCFA260500B60003F00A
:10B1F000B5FC401BB0422BD3224B1B78002B23D035
:10B20000A01D08F025FD20000E3008F02DFD2000C7
:10B210000A3008F035FD01A808F03EFD200008F0D6
:10B220005FFAC82003F0A0FCFB2040000BF07EFF7B
:10B23000002809D101210B230800134A0BF0BEFF9F
:10B24000002801D10BF0AAFF8223DB009D4470BDD2
:10B2500008F08CFFCBE7C046F0FBFFFF50BD0108B4
:10B260009777010887770108C5770108A977010852
:10B27000F9770108E1770108CC00002085B00008CB
:10B2800091B000089C050020C1000020F0B5744C6E
:10B290001500A54413220C00002107000DF0D5F97C
:10B2A0008720704E400108AB00223100C0180BF01F
:10B2B00005F9002800D0C6E02100012235A80BF0D6
:10B2C0002DF9041E00D0BEE0642135AA21A80BF0A0
:10B2D00091FE011E00D0BAE035A80BF0FBFCA542A0
:10B2E00000D0B6E035A80BF0DDFC002231001000E4
:10B2F0000BF0E4F8041E00D0A5E012265A4D21A858
:10B3000029000DF0F5FD08ABF6181A2308AA9B18C2
:10B3100002930EAB019316239B18544932000093FD
:10B320000DAB0DF067FD08AB9B7D2900079308ABC3
:10B330001B7E2000089308AB9B7E099308AB1B7D06
:10B340000A9333780B930DF0D3FD494E15AA3100C3
:10B350000DF050FD290020000DF0CAFD0FAA3100AC
:10B360000DF048FD290020000DF0C2FD12AA3100A9
:10B370000DF040FD290020000DF0BAFD18AA3100A3
:10B380000DF038FD290020000DF0B2FD1BAA3100A0
:10B390000DF030FD290020000DF0AAFD1EAA31009D
:10B3A0000DF028FD200029000DF0A2FD352208AB8C
:10B3B0009B181B780334002B05D008AB5B7F023C45
:10B3C000002B00D0033418A8FFF764FE04900FA8E8
:10B3D000FFF760FE060012A8FFF75CFE050015A847
:10B3E000FFF758FE05901BA8FFF754FE06901EA815
:10B3F000FFF750FEB3B21B0A7B70ABB21B0AFB70A7
:10B400006B469B8A059A1B0A7B716B461B8A3A71B5
:10B410001B0AFB716B461B8B049A1B0A7B7283B25F
:10B420001B0AFB720B9BBA713B730A9B069A7B73D8
:10B43000079B3E70BB73089BBD703A72B872FB737A
:10B44000099BBC743B7438000A4B9D44F0BD013429
:10B450003AE7502135AA21A8013C0BF0CBFD3EE78D
:10B46000CCDEFFFF58BD010859BD01085BBD0108D6
:10B4700073BD010834210000F0B59DB017AC0590F4
:10B48000049115000021132220000DF0DEF8504B2E
:10B49000049A1A70002D00D07CE013002A00012BC2
:10B4A00000D06DE020004B49FFF7F0FE002303932E
:10B4B000049B1BAD0293059B01936B462A881A805F
:10B4C000AA789A7017986168A268E3680CF0AEFADF
:10B4D000414E06A80CF09CF9052206A930000DF09B
:10B4E000ABF8FFF7BDFD3D4B020418700002120ED1
:10B4F000000E5A709870F378012B17D111AF3800F5
:10B500000CF086F9FB78012BF8D000230393049B01
:10B510000293059B01936B462A881A80AA789A7039
:10B5200020686168A268E3680CF086FC3379012B1F
:10B5300017D113AF38000CF06BF93B79012BF8D021
:10B5400000230393049B0293059B01936B462A8877
:10B550001A80AA789A7020686168A268E3680CF083
:10B5600065FAB378012B20D115AC20000CF050F90E
:10B57000A378012BF8D00122194B1A701DB0F0BD31
:10B580000AA81849FFF782FE132220000AA90DF02D
:10B5900053F88BE708A80CF027FA062208A91AA886
:10B5A0000DF04AF80423A37480E70C4B1A78002AA4
:10B5B000E4D15B78002BE1D17378002BDED10A4B0C
:10B5C00001321B69FF32134200D081E7D6E7C04643
:10B5D0009D05002076BD01089E050020CD050020B8
:10B5E000CC05002087BD0108000C0048F0B5834958
:10B5F0000500A1B0012800D0814916A80DF070FC0B
:10B6000008F0EEFE002216A91BA8FFF73FFE01235B
:10B61000002403936B46029501941FAA1188198098
:10B6200092789A701B981C991D9A1E9B0CF0FEF93B
:10B63000744E04A80CF0ECF80522300004A90CF0BC
:10B64000FBFFF378012B21D106AF38000CF0E0F8B6
:10B65000FB78012BF8D0013CE4B2092C00D900247E
:10B66000220016A91BA8FFF711FE01230393002354
:10B6700001936B4602951FAA1188198092789A70DF
:10B680001B981C991D9A1E9B0CF0D0F93379012B45
:10B6900023D108AF38000CF0BBF83B79012BF8D070
:10B6A0000134E4B2231C092C00D90923DCB22200A6
:10B6B00016A91BA8FFF7EAFD0123039300230193BA
:10B6C0006B4602951FAA1188198092789A701B9870
:10B6D0001C991D9A1E9B0CF0A9F93378012B00D000
:10B6E00086E00AAE30000CF093F83378012BF8D0E6
:10B6F000444E04A80CF08CF80522300004A90CF08C
:10B700009BFFF378012B17D10CAF38000CF080F8B9
:10B71000FB78012BF8D001230393002301936B46A0
:10B7200002951FAA1188198092789A701B981C990B
:10B730001D9A1E9B0CF080FB3379012B17D10EAFA5
:10B7400038000CF065F83B79012BF8D00123039306
:10B75000002301936B4602951FAA118819809278E5
:10B760009A701B981C991D9A1E9B0CF05FF97378B8
:10B77000DFB2012B37D110AE30000CF049F87378EE
:10B78000012BF8D001230393002301936B4602950C
:10B790001FAA1188198092789A701B981C991D9A7B
:10B7A0001E9B0CF043F9174B9B78DEB2012B1CD18A
:10B7B00012AF38000CF02CF8BB78012BF8D0114BED
:10B7C0009B78012B16D114AC20000CF021F8A37843
:10B7D000012BF8D00C4B002218780121C0B2FFF7E2
:10B7E0004BFE21B0F0BD0027DDE7002F00D17FE741
:10B7F0000026E4E7002E00D11AE7EBE776BD01084A
:10B8000087BD01089E0500204A030020F7B50D0002
:10B8100064210700FCF7B2F9642104003800FCF74A
:10B8200093FA002608000191002810D1019BDA1735
:10B830009B1853402200002F0FDA002C0DD109492C
:10B84000012E00D0084928000DF0B4FAF7BD0A21F6
:10B850000136F6B2FCF792F9E6E70449012EF2D080
:10B860000349F0E798BD0108A0BD010899BD010892
:10B87000A1BD010884B0F0B5864C874FA544874C24
:10B8800006AD6419206086481C0A4019016085498C
:10B8900012A849190A6084491A0C49190B608621BB
:10B8A000890149190978D2B211917C490D9249193F
:10B8B000DDB21B0E0E930B7C02220F938B7C3900A2
:10B8C00010930CF0B9FE3223002606AA9B1839000B
:10B8D000022213A81E700CF0AFFE3623892006AAA0
:10B8E0009B181E70400106AB32007049C018E4B2CC
:10B8F0000AF0E4FDB04200D089E0119A6C4B012AB5
:10B9000000D08AE0DB786B49012B00D06A4913A88C
:10B910000DF0E6FA664B9B786649012B00D066492C
:10B920005E4E12A80DF0DCFA06ABF6180023F05EAE
:10B9300015A9FFF76BFF0423F05E1BA9FFF766FF55
:10B940000223F05E18A9FFF761FF21AF0623F05E26
:10B950001EA9FFF75BFF0823F05E3900FFF756FFD3
:10B960000A23F05E24A9FFF751FF544B06A95B1888
:10B970000222196843A80AF0D1FD002814D04F4BC9
:10B9800006A95B181968122243A80AF0C7FD4C49A2
:10B9900027A80DF0A5FA27A8FCF736F814AB02008B
:10B9A00027A943A80AF0E6FF109B032B40D112AB56
:10B9B000089324AB07931EAB059318AB049315AB08
:10B9C00003930F9B2A0002930E9B3E4901930D9B0C
:10B9D0000697009327A823000DF0ECF9882306AA08
:10B9E0005B019B18196843A80BF074F927A8FCF7B2
:10B9F0000BF827A9020014AB43A80AF0BBFF43A829
:10BA00000BF050F90022294910000AF057FD244B91
:10BA10009D44F0BC08BC04B018479B792549012B14
:10BA200000D0254913A80DF05BFA214B5B7973E731
:10BA3000109B012B10D113AB04931BAB03930F9BF3
:10BA40002A0002930E9B204901930D9B27A8009387
:10BA500023000DF0AFF9C1E712AB0A9313AB0993C2
:10BA600024AB089321AB07931EAB069318AB059349
:10BA700015AB04931BAB03930F9B2A0002930E9B01
:10BA8000124901930D9B27A8009323000DF092F912
:10BA9000A4E7C04694DEFFFF00BC01086821000057
:10BAA0006C210000702100007421000058BD0108C5
:10BAB000E7050020FFC50108A7BD01087C210000A3
:10BAC000AABD0108DFBD010813BE010843BE01087D
:10BAD00070B52D4C86B00100684607F0ADF8142211
:10BAE000694620000CF0A8FD657820782D020543FA
:10BAF000A078627A00042843E57812022D060543F7
:10BB0000207A61790243A07AE67A00041043227910
:10BB1000090211433606A27930432840637BE57958
:10BB200012040A43217B2D061B020B432A43A17BEF
:10BB30000240E07B0904194300060143607C237C3A
:10BB400011400002A27C1843E37C120410431B0640
:10BB500003430B40013314D1002323706370A3709F
:10BB6000E37023726372A372E37223716371A37132
:10BB7000E37123736373A373E37323746374A37414
:10BB8000E37406B070BDC046A305002010B598B0A0
:10BB9000342200210BA80CF058FD10220021684629
:10BBA0000CF053FD1C22002104A80CF04EFD04F003
:10BBB00057F91823174A0124116A0BA80B43136283
:10BBC00024230B9300230D941394149304F052F93F
:10BBD000002801D072B6FEE707230290009303907D
:10BBE000043B21006846019304F0CCFB002801D0FF
:10BBF00072B6FEE7084B0790049380230A905B001F
:10BC000004A8059304F058FC002801D072B6FEE7A2
:10BC100018B010BD0010024002000300124B70B5B6
:10BC2000984204D1114A13680133136070BD104C5F
:10BC3000A042FBD10F4E3378002B04D080210E4858
:10BC4000490003F061FA0D4D2B78002B04D08021C0
:10BC50000948890003F058FA33782A781343E5D16C
:10BC6000200005F0EFFBE1E73C040020F405002094
:10BC700084040020CA05002000080048CB050020ED
:10BC8000F0B597B0009011A80D000C9206F0F8FFE7
:10BC9000129B119E0293149B159F0D930C9B012BDD
:10BCA00000D0BEE2F34B0C981C78E4B2FFF710FF13
:10BCB000002C00D0B3E20EA80BF096FEEE48062250
:10BCC0000EA90C300CF0B8FC012D01D0042D67D169
:10BCD000EA49EB4C4B7C0A7C887C1B021A43CB7CE8
:10BCE0000004617C10431B061843237CA27C0902DC
:10BCF0001943E37C120411431B060B43C01AFEF7E1
:10BD000029FC0022DF4BFDF7D1F9040030000D00C3
:10BD1000FEF750FC02000B0020002900FDF7C8FDD3
:10BD20000022D94B04000D00FDF7C2FDFEF7DCFB3D
:10BD3000D14A83B21B0A10715371381CFEF760FCA4
:10BD400022002B00FCF728F800280BD180231B06CB
:10BD5000F818FEF755FC22002B00FCF731F80028FC
:10BD600000D166E20C9AC94B012A00D05EE2DA707B
:10BD7000C64B5A781978120298781143DA78000481
:10BD80000843120610435A7919799C7912020A4322
:10BD9000D9792404224309061143BD4A0BF076FDEC
:10BDA000009B152B00D03AE23000FEF703FC009018
:10BDB00001910298FEF7FEFBB04B06001A785B7803
:10BDC0000F001B021A43AD4B9878DB780004104338
:10BDD0001B06AB4A1843AA4B51781B78090219433A
:10BDE00013009278DB78120411431B060B43C01A30
:10BDF000FEF7B0FB0022A34BFDF758F9009A019B18
:10BE0000FDF756FD02000B00FCF714FE32003B006C
:10BE1000FDF74CF900229F4BFDF74AFD04000D0091
:10BE20000EF0FCFD02900391200029000EF0B0FD01
:10BE3000029A039B04000D0030003900FDF738FD25
:10BE400022002B00FDF734FD029003918B4B1A79F1
:10BE50005B791B021A43894B9879DB790004104304
:10BE60001B06874A1843864B51791B7909021943EF
:10BE700013009279DB79120411431B060B43C01A9D
:10BE8000FEF768FB00227F4BFDF710F9009A019B3B
:10BE9000FDF70EFD02000B00FCF7CCFD32003B006D
:10BEA000FDF704F900227B4BFDF702FD04000D00B5
:10BEB0000EF0B4FD04900591200029000EF068FDFD
:10BEC000049A059B04000D0030003900FDF7F0FCDA
:10BED00022002B00FDF7ECFC04900591674B1A7AC9
:10BEE0005B7A1B021A43654B987ADB7A0004104395
:10BEF0001B06634A1843624B517A1B7A09021943A5
:10BF00001300927ADB7A120411431B060B43C01A0A
:10BF1000FEF720FB00225B4BFDF7C8F8009A019B5F
:10BF2000FDF7C6FC02000B00FCF784FD32003B006D
:10BF3000FDF7BCF80022574BFDF7BAFC04000D00DA
:10BF40000EF06CFD06900791200029000EF020FDF8
:10BF5000069A079B04000D0030003900FDF7A8FC8D
:10BF600022002B00FDF7A4FC06900791434B1A7B9F
:10BF70005B7B1B021A43414B987BDB7B0004104325
:10BF80001B063F4A18433E4B517B1B7B090219435A
:10BF90001300927BDB7B120411431B060B43C01A78
:10BFA000FEF7D8FA0022374BFDF780F8009A019B84
:10BFB000FDF77EFC02000B00FCF73CFD32003B006D
:10BFC000FDF774F80022334BFDF772FC04000D00FE
:10BFD0000EF024FD00900191200029000EF0D8FC05
:10BFE000009A019B04000D0030003900FDF760FC51
:10BFF00022002B00FDF75CFC06000F0002000B0086
:10C0000006980799FCF716FD234A244BFDF750FCD0
:10C0100032003B000890099106980799FDF7B4FE9D
:10C020000400802000060D18290020001A4A1B4B2E
:10C03000FDF73EFC049A059B0A900B911000190035
:10C04000FDF736FC029A039B04000D001000190056
:10C05000FDF72EFC02000B0020002900FCF7EAFC93
:10C060000EF022FD32003B0030003900FDF720FCCD
:10C0700016E0C0464A030020B7050020D305002083
:10C08000A305002080842E4100005940E7050020D0
:10C09000FC0500200000E03F624ECD6007A0E63FB7
:10C0A000069A079B04000D0010001900FDF700FC24
:10C0B00002000B0020002900FCF7BCFC0EF0F4FC91
:10C0C000009001910D98FEF775FA049A059B040003
:10C0D0000D0002980399FCF7ADFC5E4A5E4BFDF73C
:10C0E000E7FB02000B0008980999FDF74DFE2200BE
:10C0F0002B00FCF7DBFF0EF0CBFA049A059B0690B1
:10C10000079102980399FDF73FFE06008020000684
:10C110000F18390030004F4A4F4BFDF7C9FB0200A2
:10C120000B000A980B99FDF72FFE22002B00FCF75D
:10C13000BDFF0EF0ADFA0022484B06000F00089834
:10C140000999FDF7B5FBFEF7CFF9454C83B21B0A01
:10C150000022207063700A980B99404BFDF7A8FBF2
:10C16000FEF7C2F983B21B0A0022A070E3700098A8
:10C1700001993A4BFDF79CFBFEF7B6F983B21B0A17
:10C180000022A071E37106980799364BFDF790FBEA
:10C19000354A364BFCF78AFF0022354BFDF788FB0A
:10C1A000FEF7A2F983B21B0A0022207263723000EC
:10C1B0002C4B3900FDF77CFB2B4A2C4BFCF776FF10
:10C1C00000222B4BFDF774FBFEF78EF983B21B0A9E
:10C1D000A072E3721398FEF713FA009A019BFBF723
:10C1E000DBFD244B0C9A00282ED0012A29D19A700D
:10C1F0005A781978120298781143DA7800040843C3
:10C20000120610435A7919799C7912020A43D97996
:10C210002404224309061143174A0BF037FB17B0D9
:10C22000F0BD164B02201C78E4B23FE501229A7162
:10C230009EE50C9A0F4B012A01D1D87098E59871B0
:10C2400096E501225A71D3E7012A01D19870CFE710
:10C250005871CDE7624ECD6007A0E63F000059401F
:10C26000B705002000806640894160E5D022094082
:10C2700000002440E7050020FC0500204B030020BF
:10C2800070B5012862D1334B1B69012902D11B050E
:10C2900002D570BD5B05FCD4002201212E4B1A7023
:10C2A0002E4B5A781D78120298781543DA780004DC
:10C2B0001206284310435A799C7912020A431971D5
:10C2C000D9792404224309061143254A0BF0DEFAEA
:10C2D000FA20C00002F048FC2249012408691F4BE3
:10C2E0001F4A00051BD50969490A214217D00021C0
:10C2F00019715978987809021C700C43D978000498
:10C300009D79204309065C790843D97924022D04DC
:10C310002C43090621430BF0B9FA0320B9E70021A9
:10C320005C78987819701971D978240200049D7985
:10C33000204309065C790843D97924022D042C4353
:10C34000090621430BF0A2FA1420A2E70228A0D18B
:10C35000BEE7C046000C0048CD050020E7050020E0
:10C36000FC050020001000480023F0B58BB00792B8
:10C37000904A06911360904A90491360904A059044
:10C3800093700B704B708F490B714B71032822D146
:10C39000802180248C4BC90024010698012825D1D6
:10C3A000186920421BD190780128F6D10021802005
:10C3B0008024917080228000D200240119690142FA
:10C3C00005D1069901290DD119692142F6D005231D
:10C3D0000822059300E00522059B052B54D0059803
:10C3E0000BB0F0BD19691142E8D0F0E718690842B6
:10C3F000D9D0F4E7714B1978012917D1597801295F
:10C4000014D1082A12D100221A705A70694A6A4B54
:10C4100010681968884242D913686C4A190A137463
:10C420005174190C1B0E9174D3740722644B9B78C2
:10C43000DEB2012B00D0B2E0654B072A3ED00022CD
:10C440005F4998788A705A701978DA78000408433E
:10C45000120610435A7919799C7912020A43D97944
:10C4600024042243090611435A4A0BF00FFA022210
:10C47000544B9A74FF32FF322B69134211D02B694F
:10C480009B0500D593E00922069B4F4D012B00D060
:10C4900089E080212B6909010B42ABD09FE71B6823
:10C4A000BBE7069B012B05D180212B6909010B42BB
:10C4B000E2D0E4E780212B69C900F8E780201978F1
:10C4C000400001439878DA780004084312061043CC
:10C4D0005A7919799C7912020A43D97924042243A2
:10C4E000090611433B4A5E700BF0D0F9354C310020
:10C4F0000520069AA674FFF7C3FB0023069A039350
:10C500000292079A6846019262782178A378120213
:10C510001143E2781B040B4312061A430892627916
:10C520002179A379120211431B040B432100E27904
:10C53000A77A12061A43637A0992227A1B021A43D7
:10C54000E37A3F0417431B061F43637B227BA67BD2
:10C550001B021A43E37B36041B0616431E430322C9
:10C5600010310CF069F83A003300089809990BF083
:10C570005DFA0023124A9370802292002B691342C5
:10C5800000D07CE7069B012B05D180212B69090196
:10C590000B42F3D073E780212B69C900F8E7092A21
:10C5A00000D071E76BE780212B69C90074E70B238A
:10C5B000059314E74C03002050030020EF050020F2
:10C5C000CD050020B7050020000C0048D305002051
:10C5D000E7050020FC0500200023F7B56C4A019117
:10C5E00013606C4A13600B280CD1802280256A4BA3
:10C5F0006A49D2002D01019C012C50D11C692C42AA
:10C6000050D0FEBD0126664B5A781C7812029978EC
:10C610001443DA780904214312065C791D79114329
:10C620009A792402254312042A430025DC79AC467A
:10C6300024062243340000950D2800D086E0019D99
:10C64000012D00D09CE0544D2F6980252D012F42F3
:10C650007CD1002E46D1534F3F78012F00D094E07B
:10C660008026B600B4464A494F4F096865463E6980
:10C670002E4208D1019D012D2FD1474D2E698025D5
:10C680002D012E42F2D0002C49D00125AC4651E0BC
:10C690001969014214D01EE00D200026B3E71C6981
:10C6A0001442AED18C78012CA5D100228A703D496C
:10C6B00080200A7080244A708022C00092002401E9
:10C6C00019690E0016401142E6D101990129DFD106
:10C6D00019692142F4D00D2095E72F4D2E69802550
:10C6E000ED00CEE7002C23D12E4C67780024012FDB
:10C6F00024D1284A2C4F126880253C692D012C42F8
:10C7000006D1019C012C0ED1234C24692C42F3D07C
:10C71000022E31D10120340000900D300EE00124B2
:10C720000226A446E0E780251B4CED002469EDE7D6
:10C73000022E03D10226B44200D10E20164D2D69DF
:10C74000AD0500D578E70E2800D014206446002CF3
:10C7500006D00C0A19705C700C0C090E9C70D97014
:10C760000099002900D14CE7110A1A715971110C76
:10C77000120E9971DA7144E7012400942419DDE75F
:10C78000054D2F698025ED0061E7002CACD0D5E781
:10C790004C03002050030020000C0048CD05002071
:10C7A000D3050020EF050020001000480023F0B55D
:10C7B0007C4A85B013607C4A039113600E280DD12A
:10C7C00080228025794B7A49D2002D01039C012CCF
:10C7D00049D11C692C4249D005B0F0BD01247549EE
:10C7E000A4464B7A0D7A8A7A1B021D431204CB7A37
:10C7F0002A434D7B0E7B1B062D021A438B7B2E4357
:10C80000CD7B1B042D0633432B4300250195029558
:10C81000102800D0A2E0039D012D00D0B9E0634DA7
:10C820002E6980252D012E423BD00299002907D088
:10C830006049140A0A724C72140C120E8C72CA727D
:10C84000019A002AC8D05B4A190A13735173190C54
:10C850001B0E9173D373BFE71969014214D01EE018
:10C8600010200024BBE71C691442B5D18C78012C40
:10C87000ACD100228A70504980200A7080254A700D
:10C880008022C00092002D0119690C001440114251
:10C89000E6D103990129DFD119692942F4D010208A
:10C8A0009DE7002C20D1444E3778012F76D1802788
:10C8B0003C4ABF0012683470404E34693C4208D193
:10C8C000039C012C0BD18025384C2D0124692C426E
:10C8D000F3D06446002C29D00124029431E0802555
:10C8E000324CED002469F2E76546002D27D1002780
:10C8F000314EBC467578012D28D12B4B1B687770C3
:10C900002E4F80253E692D012E4208D1039D012D19
:10C9100010D1264D2E6980252D012E42F1D0022CFA
:10C9200032D10120A446019011300FE0012402947D
:10C930002419DCE71D4D2E698025ED00EDE7022C62
:10C9400004D102246546A54200D11220174D2D695D
:10C95000AD0500D55CE7122800D01420029C002C05
:10C9600006D0140A0A724C72140C120E8C72CA721F
:10C97000019A002A00D12FE71A0A0B734A731A0C86
:10C980001B0E8A73CB7327E7012501956D19AC4601
:10C99000DCE7064D2E698025ED0044E76546002D55
:10C9A000A5D0D3E74C03002050030020000C004822
:10C9B000CD050020D3050020EF0500200010004821
:10C9C000F0B51B2795B004ABFF1801233B70002383
:10C9D000C14EC24A0490137053709370D370137198
:10C9E0005371137253729372D37293743370737062
:10C9F000B370F37033717371B371F3713372737217
:10CA0000B372F37233737373B373F3733374B44ADF
:10CA1000B44C1360B44A73741360B44AB3741370A3
:10CA20005370B34AF3749370012800D0E8E1B14A1F
:10CA300060781370A370E370237800021843637961
:10CA40002179A2791B020B43E179AB4D1204134308
:10CA5000090619432A000AF019FFA84BA8491B78B8
:10CA60000FA8DBB205930CF03BFA059B002B0CD111
:10CA7000A44A049B0499137053781B020B439078CB
:10CA80002900000418430AF05FFF9F4804F0DAFC15
:10CA900004980BF0DDFC38780499C0B2FFF7F0FB86
:10CAA00038703B783878059A0499C0B2FFF75CFC7F
:10CAB000387038780499C0B2FFF78EFD3870387836
:10CAC0000499C0B2FFF772FE38703B78142B1FD167
:10CAD000049B012B00D0BDE11800A370E3700BF0A4
:10CAE00005FD637822781B02A0781A43E3780004DE
:10CAF00010431B06184363792179A2791B020B436B
:10CB0000E1791204134309067B4A19430AF0BEFE79
:10CB10003B78142B00D1A1E11B2504ABED182B7839
:10CB2000122B0AD1049B012B00D0DBE28022774B31
:10CB300012011B69134200D107E280238021DB0030
:10CB400009012A78152A00D0DAE2049A012A00D0D5
:10CB5000CDE26E4A12690A42F3D06C4B1B691B0589
:10CB6000DB0F00D14AE100225E4B98781A705A70B0
:10CB70001A71DA71DA7800041206997910435A7939
:10CB80000904120211435C4A0AF080FE2B780B2B39
:10CB90003BD1059B002B38D1049B504902930FAB2E
:10CBA00001934B780A788F781B021A43CB783F04A5
:10CBB00017431B061F434B790A791B021A438B79D3
:10CBC0008D7A1B041A43CB792D041B06134306935D
:10CBD0004B7A0A7A1B021A43CB7A15431B061D4374
:10CBE0004B7B0A7B8C7B1B021A43CB7B24041B06EA
:10CBF00014431C430322103168460BF01DFD38001E
:10CC00002A0023000699FEF735FE1B2304AA9B1871
:10CC10001B78152B00D07AE2059B012B00D076E221
:10CC20009624A4003A4D2B78012B0ED00A2001F057
:10CC30009BFF013C08A80AF0EBFDA4B205222800E6
:10CC400008A90BF0F9FC002CECD12B78DDB2012BFC
:10CC500000D0D3E00498FEF73BFF2E4843780278DB
:10CC60001B0284781A43C378240414431B06417AB8
:10CC70001C43037A827A09021943C37A12041143CE
:10CC80001B060B4341791C4303798279090219433E
:10CC9000C379120411431B060B43417B1C43037BE6
:10CCA000827B09021943C37B120411431B060B4309
:10CCB000417C1C43037C827C09021943C37C12041F
:10CCC00011431B060B431C4300D097E0034B9B7C96
:10CCD000022B00D192E01FE0D3050020B705002011
:10CCE0004C030020E705002050030020EF05002042
:10CCF000CD050020CA050020FC0500204A030020C5
:10CD000076BD0108D005002084040020000C0048F6
:10CD10009E050020A305002071783378B2780902BF
:10CD20001943F378120411431B060B431A0A0370CC
:10CD300042701A0C1B0E8270C37071793379B2790C
:10CD400009021943F379120411431B060B431A0A13
:10CD5000037142711A0C1B0E8271C371717A337A9E
:10CD6000B27A09021943F37A120411431B060B43EA
:10CD70001A0A037242721A0C1B0E8272C372717B02
:10CD8000337BB27B09021943F37B120411431B0668
:10CD90000B431A0A037342731A0C1B0E8273C3737C
:10CDA000337C717CB27C09021943F37C1204114379
:10CDB0001B060B431A0A0499037442741A0C1B0EC7
:10CDC000C374827405F01EFF049BD349012B00D06D
:10CDD0009AE10B70D14B1C704A780B78887812025C
:10CDE000134300041843CE490AF0AEFD049ACD4B1C
:10CDF00000201A7001220499FEF73EFB15B0F0BD29
:10CE0000C94A63711370A37163782278A0781B02FA
:10CE10001A43E3780004E17910431B061843C04D20
:10CE20002379090619432A000AF030FDBF4BC04997
:10CE30001B780FA8DBB205930CF052F8059B002B72
:10CE400000D022E68020B44A0133537013784000AA
:10CE5000034314E601206071A07140E680230122A3
:10CE6000AD4D5B00A878134300041843AC492A7009
:10CE70006A700AF069FDFA200024400001F074FE97
:10CE8000A878A74900042C706C700AF05DFD0BA80F
:10CE90000AF0BEFC04AB5B7F012B00D038E6A54B4B
:10CEA0001B685C62A44B1C600DA80AF0B1FC252233
:10CEB00004AB9B181B78012B02D1A04B9C4237DDA1
:10CEC0009F4B9C4200DC23E6944B95491B78002441
:10CED0005A4253412B70954B1878434258412B7856
:10CEE000687000021843AB781B0418430AF02CFD4D
:10CEF000049A944B012A25D19C70DC705A781978D9
:10CF0000987812021143DA7800040843120610439D
:10CF10005A7919799C7912020A43D9792404224357
:10CF2000090611437E4A0AF0B1FC01233B70EFE58C
:10CF3000814B80491B68CC68013B5C430A68526A9C
:10CF4000A418B1E75C719C71D8E77F4B9A78012AED
:10CF500000D0E4E500229A7015237C4C2B70A37C52
:10CF6000012B00D0AEE00333A3742878049AA17C8F
:10CF7000C0B2FEF785FE734D754BAA78012A03D027
:10CF8000EA78012A00D0A2E0012272481A7004F067
:10CF900029FA6A79644B012A03D0AA79012A00D0C0
:10CFA00098E001226B481A7004F01CFAA37C002B55
:10CFB0003CD0059B002B39D1049B684602930FABF4
:10CFC000019362782178A37812021143E2781B045E
:10CFD0000B4312061A43069262792179A379120251
:10CFE00011431B040B432100E279A77A12061A436E
:10CFF000637A0792227A1B021A43E37A3F041743AB
:10D000001B061F43637B227BA57B1B021A43E37B2A
:10D010002D041B0615431D43032210310BF00CFB9E
:10D020003A002B0006980799FEF724FC002303938F
:10D03000049B46490293059B01934A7808788B78B4
:10D0400012021043CA781B04034312061A434B7999
:10D0500006920A798F791B021A43CB793F04174352
:10D060001B061F434B7A0A7A8D7A1B021A43CB7A2E
:10D070002D0415431B061D434B7B0A7B8C7B1B0237
:10D080001A43CB7B24041B0614431C430322103198
:10D0900068460BF0D1FA2A003900230006980AF0FE
:10D0A000C5FC802292002C4B1B69134200D033E553
:10D0B000049B012B11D18021274B09011B690B42D5
:10D0C000F1D029E5022B00D04FE701334CE70022D5
:10D0D0001A705EE700221A7068E780211E4BC900B3
:10D0E0001B69ECE780221C4BD2001B6922E51A4A1F
:10D0F00012691A4200D124E5174B1B695B052FE525
:10D10000049B012BF8D128E5084B4D7063E6002203
:10D110000499059870E6C046D00500204A03002017
:10D12000FC0500209D050020CB0500204B030020BE
:10D1300087BD01083C040020F40500207F841E0008
:10D1400080841E00E7050020CD050020B7050020E3
:10D15000CA05002084040020000C00480123F0B51B
:10D16000E44CE54DA544E54CE549A2691343A361B0
:10D1700000239A00505901335050302BF9D1E14A25
:10D180002D3B1168E04F0B43136001F0CBFCFEF721
:10D19000FDFC1422002181A80BF057FA802162695E
:10D1A00089030A4362616369D8480B408021119367
:10D1B000119B626909030A436261636901250B409F
:10D1C00080211293129B6269C9030A4362616369F9
:10D1D00010260B4080211393139B626989020A4336
:10D1E000626163690B4080211493149B6269C902D8
:10D1F0000A43626163690B4080211593159B626944
:10D2000049030A436261636900220B401693C049D7
:10D21000169B01F073FF01224021BC4801F06EFF14
:10D22000902000221021C00501F068FFC8210122D2
:10D23000B848890001F062FF39000022B64801F0C9
:10D240005DFF80219020002401224900C00501F0EB
:10D2500055FF00220121B14801F050FFB04BAB480F
:10D2600081A9819383948494829501F003FE902098
:10D2700081A9C005839484948196829501F0FAFD7A
:10D28000D023A44881A981938294839401F0F2FD74
:10D290002023A04881A9819383948494829501F0EE
:10D2A000E9FD9D4881A9819783948494829501F03A
:10D2B000E1FDF02398481B0281A981938294839415
:10D2C00001F0D8FDF12395481B0281A98193829436
:10D2D000839401F0CFFD80239B00819388238F48A6
:10D2E0005B0381A98293839501F0C4FDC0238B4821
:10D2F0001B0181A981938294839501F0BBFDC0231A
:10D3000011279B00834881A98193829783948494F9
:10D3100001F0B0FD80229020520081A9C0058192C9
:10D3200082978394849401F0A5FD7C4881A983941D
:10D3300084948195829501F09DFDC42304229B0372
:10D34000764881A982938192839501F093FD220012
:10D350002100062001F01AFC062001F041FC220009
:10D360002900072001F012FC072001F039FC6D486C
:10D370006D4B093F036082235B004360E023DB00C9
:10D38000C36080239B008361FA3BFF3B84600461A0
:10D3900044610462446284620463C661C362476399
:10D3A00003F000FC041E01D072B6FEE7FDF7CAFED2
:10D3B0005E485F4B2200036096231B0243600C23F0
:10D3C0002100436123008460C46004618461C461FE
:10D3D0000462446204F0CEFE041E01D072B6FEE781
